{
  "address": "0x7d290e712923542008D16EbBef82DD7CB512cE04",
  "abi": [
    {
      "inputs": [
        {
          "internalType": "address",
          "name": "defaultAdmin",
          "type": "address"
        },
        {
          "internalType": "address",
          "name": "minter",
          "type": "address"
        }
      ],
      "stateMutability": "nonpayable",
      "type": "constructor"
    },
    {
      "inputs": [],
      "name": "InvalidShortString",
      "type": "error"
    },
    {
      "inputs": [
        {
          "internalType": "string",
          "name": "str",
          "type": "string"
        }
      ],
      "name": "StringTooLong",
      "type": "error"
    },
    {
      "anonymous": false,
      "inputs": [
        {
          "indexed": true,
          "internalType": "address",
          "name": "owner",
          "type": "address"
        },
        {
          "indexed": true,
          "internalType": "address",
          "name": "spender",
          "type": "address"
        },
        {
          "indexed": false,
          "internalType": "uint256",
          "name": "value",
          "type": "uint256"
        }
      ],
      "name": "Approval",
      "type": "event"
    },
    {
      "anonymous": false,
      "inputs": [
        {
          "indexed": true,
          "internalType": "address",
          "name": "departmentAddress",
          "type": "address"
        },
        {
          "indexed": false,
          "internalType": "string",
          "name": "name",
          "type": "string"
        }
      ],
      "name": "DepartmentRegistered",
      "type": "event"
    },
    {
      "anonymous": false,
      "inputs": [],
      "name": "EIP712DomainChanged",
      "type": "event"
    },
    {
      "anonymous": false,
      "inputs": [
        {
          "indexed": true,
          "internalType": "address",
          "name": "merchantAddress",
          "type": "address"
        },
        {
          "indexed": false,
          "internalType": "string",
          "name": "name",
          "type": "string"
        },
        {
          "indexed": false,
          "internalType": "string",
          "name": "merchantIdentifier",
          "type": "string"
        }
      ],
      "name": "MerchantRegistered",
      "type": "event"
    },
    {
      "anonymous": false,
      "inputs": [
        {
          "indexed": true,
          "internalType": "bytes32",
          "name": "role",
          "type": "bytes32"
        },
        {
          "indexed": true,
          "internalType": "bytes32",
          "name": "previousAdminRole",
          "type": "bytes32"
        },
        {
          "indexed": true,
          "internalType": "bytes32",
          "name": "newAdminRole",
          "type": "bytes32"
        }
      ],
      "name": "RoleAdminChanged",
      "type": "event"
    },
    {
      "anonymous": false,
      "inputs": [
        {
          "indexed": true,
          "internalType": "bytes32",
          "name": "role",
          "type": "bytes32"
        },
        {
          "indexed": true,
          "internalType": "address",
          "name": "account",
          "type": "address"
        },
        {
          "indexed": true,
          "internalType": "address",
          "name": "sender",
          "type": "address"
        }
      ],
      "name": "RoleGranted",
      "type": "event"
    },
    {
      "anonymous": false,
      "inputs": [
        {
          "indexed": true,
          "internalType": "bytes32",
          "name": "role",
          "type": "bytes32"
        },
        {
          "indexed": true,
          "internalType": "address",
          "name": "account",
          "type": "address"
        },
        {
          "indexed": true,
          "internalType": "address",
          "name": "sender",
          "type": "address"
        }
      ],
      "name": "RoleRevoked",
      "type": "event"
    },
    {
      "anonymous": false,
      "inputs": [
        {
          "indexed": true,
          "internalType": "address",
          "name": "userAddress",
          "type": "address"
        },
        {
          "indexed": false,
          "internalType": "uint256",
          "name": "amount",
          "type": "uint256"
        }
      ],
      "name": "TokensIssued",
      "type": "event"
    },
    {
      "anonymous": false,
      "inputs": [
        {
          "indexed": true,
          "internalType": "address",
          "name": "from",
          "type": "address"
        },
        {
          "indexed": true,
          "internalType": "address",
          "name": "to",
          "type": "address"
        },
        {
          "indexed": false,
          "internalType": "uint256",
          "name": "value",
          "type": "uint256"
        }
      ],
      "name": "Transfer",
      "type": "event"
    },
    {
      "anonymous": false,
      "inputs": [
        {
          "indexed": true,
          "internalType": "address",
          "name": "userAddress",
          "type": "address"
        }
      ],
      "name": "UserAuthenticated",
      "type": "event"
    },
    {
      "anonymous": false,
      "inputs": [
        {
          "indexed": true,
          "internalType": "address",
          "name": "userAddress",
          "type": "address"
        },
        {
          "indexed": false,
          "internalType": "string",
          "name": "name",
          "type": "string"
        },
        {
          "indexed": false,
          "internalType": "string",
          "name": "aadharQRCode",
          "type": "string"
        }
      ],
      "name": "UserRegistered",
      "type": "event"
    },
    {
      "inputs": [],
      "name": "DEFAULT_ADMIN_ROLE",
      "outputs": [
        {
          "internalType": "bytes32",
          "name": "",
          "type": "bytes32"
        }
      ],
      "stateMutability": "view",
      "type": "function"
    },
    {
      "inputs": [],
      "name": "DEPARTMENT_ROLE",
      "outputs": [
        {
          "internalType": "bytes32",
          "name": "",
          "type": "bytes32"
        }
      ],
      "stateMutability": "view",
      "type": "function"
    },
    {
      "inputs": [],
      "name": "DOMAIN_SEPARATOR",
      "outputs": [
        {
          "internalType": "bytes32",
          "name": "",
          "type": "bytes32"
        }
      ],
      "stateMutability": "view",
      "type": "function"
    },
    {
      "inputs": [],
      "name": "MINTER_ROLE",
      "outputs": [
        {
          "internalType": "bytes32",
          "name": "",
          "type": "bytes32"
        }
      ],
      "stateMutability": "view",
      "type": "function"
    },
    {
      "inputs": [
        {
          "internalType": "address",
          "name": "owner",
          "type": "address"
        },
        {
          "internalType": "address",
          "name": "spender",
          "type": "address"
        }
      ],
      "name": "allowance",
      "outputs": [
        {
          "internalType": "uint256",
          "name": "",
          "type": "uint256"
        }
      ],
      "stateMutability": "view",
      "type": "function"
    },
    {
      "inputs": [
        {
          "internalType": "address",
          "name": "spender",
          "type": "address"
        },
        {
          "internalType": "uint256",
          "name": "amount",
          "type": "uint256"
        }
      ],
      "name": "approve",
      "outputs": [
        {
          "internalType": "bool",
          "name": "",
          "type": "bool"
        }
      ],
      "stateMutability": "nonpayable",
      "type": "function"
    },
    {
      "inputs": [],
      "name": "authenticateUser",
      "outputs": [],
      "stateMutability": "nonpayable",
      "type": "function"
    },
    {
      "inputs": [
        {
          "internalType": "address",
          "name": "account",
          "type": "address"
        }
      ],
      "name": "balanceOf",
      "outputs": [
        {
          "internalType": "uint256",
          "name": "",
          "type": "uint256"
        }
      ],
      "stateMutability": "view",
      "type": "function"
    },
    {
      "inputs": [
        {
          "internalType": "uint256",
          "name": "amount",
          "type": "uint256"
        }
      ],
      "name": "burn",
      "outputs": [],
      "stateMutability": "nonpayable",
      "type": "function"
    },
    {
      "inputs": [
        {
          "internalType": "address",
          "name": "account",
          "type": "address"
        },
        {
          "internalType": "uint256",
          "name": "amount",
          "type": "uint256"
        }
      ],
      "name": "burnFrom",
      "outputs": [],
      "stateMutability": "nonpayable",
      "type": "function"
    },
    {
      "inputs": [],
      "name": "decimals",
      "outputs": [
        {
          "internalType": "uint8",
          "name": "",
          "type": "uint8"
        }
      ],
      "stateMutability": "view",
      "type": "function"
    },
    {
      "inputs": [
        {
          "internalType": "address",
          "name": "spender",
          "type": "address"
        },
        {
          "internalType": "uint256",
          "name": "subtractedValue",
          "type": "uint256"
        }
      ],
      "name": "decreaseAllowance",
      "outputs": [
        {
          "internalType": "bool",
          "name": "",
          "type": "bool"
        }
      ],
      "stateMutability": "nonpayable",
      "type": "function"
    },
    {
      "inputs": [
        {
          "internalType": "address",
          "name": "",
          "type": "address"
        }
      ],
      "name": "departments",
      "outputs": [
        {
          "internalType": "string",
          "name": "name",
          "type": "string"
        },
        {
          "internalType": "address",
          "name": "walletAddress",
          "type": "address"
        }
      ],
      "stateMutability": "view",
      "type": "function"
    },
    {
      "inputs": [],
      "name": "eip712Domain",
      "outputs": [
        {
          "internalType": "bytes1",
          "name": "fields",
          "type": "bytes1"
        },
        {
          "internalType": "string",
          "name": "name",
          "type": "string"
        },
        {
          "internalType": "string",
          "name": "version",
          "type": "string"
        },
        {
          "internalType": "uint256",
          "name": "chainId",
          "type": "uint256"
        },
        {
          "internalType": "address",
          "name": "verifyingContract",
          "type": "address"
        },
        {
          "internalType": "bytes32",
          "name": "salt",
          "type": "bytes32"
        },
        {
          "internalType": "uint256[]",
          "name": "extensions",
          "type": "uint256[]"
        }
      ],
      "stateMutability": "view",
      "type": "function"
    },
    {
      "inputs": [
        {
          "internalType": "bytes32",
          "name": "role",
          "type": "bytes32"
        }
      ],
      "name": "getRoleAdmin",
      "outputs": [
        {
          "internalType": "bytes32",
          "name": "",
          "type": "bytes32"
        }
      ],
      "stateMutability": "view",
      "type": "function"
    },
    {
      "inputs": [],
      "name": "getSchemeAmounts",
      "outputs": [
        {
          "internalType": "string[]",
          "name": "schemeNames",
          "type": "string[]"
        },
        {
          "internalType": "uint256[]",
          "name": "schemeAmounts",
          "type": "uint256[]"
        }
      ],
      "stateMutability": "view",
      "type": "function"
    },
    {
      "inputs": [
        {
          "internalType": "address",
          "name": "userAddress",
          "type": "address"
        }
      ],
      "name": "getSchemes",
      "outputs": [
        {
          "components": [
            {
              "internalType": "string",
              "name": "name",
              "type": "string"
            },
            {
              "internalType": "uint256",
              "name": "amount",
              "type": "uint256"
            },
            {
              "internalType": "uint256",
              "name": "validity_time",
              "type": "uint256"
            },
            {
              "internalType": "string",
              "name": "identifier",
              "type": "string"
            }
          ],
          "internalType": "struct CivicFLow.Scheme[]",
          "name": "",
          "type": "tuple[]"
        }
      ],
      "stateMutability": "view",
      "type": "function"
    },
    {
      "inputs": [
        {
          "internalType": "bytes32",
          "name": "role",
          "type": "bytes32"
        },
        {
          "internalType": "address",
          "name": "account",
          "type": "address"
        }
      ],
      "name": "grantRole",
      "outputs": [],
      "stateMutability": "nonpayable",
      "type": "function"
    },
    {
      "inputs": [
        {
          "internalType": "bytes32",
          "name": "role",
          "type": "bytes32"
        },
        {
          "internalType": "address",
          "name": "account",
          "type": "address"
        }
      ],
      "name": "hasRole",
      "outputs": [
        {
          "internalType": "bool",
          "name": "",
          "type": "bool"
        }
      ],
      "stateMutability": "view",
      "type": "function"
    },
    {
      "inputs": [
        {
          "internalType": "address",
          "name": "spender",
          "type": "address"
        },
        {
          "internalType": "uint256",
          "name": "addedValue",
          "type": "uint256"
        }
      ],
      "name": "increaseAllowance",
      "outputs": [
        {
          "internalType": "bool",
          "name": "",
          "type": "bool"
        }
      ],
      "stateMutability": "nonpayable",
      "type": "function"
    },
    {
      "inputs": [
        {
          "internalType": "address",
          "name": "",
          "type": "address"
        }
      ],
      "name": "isUserAuthenticated",
      "outputs": [
        {
          "internalType": "bool",
          "name": "",
          "type": "bool"
        }
      ],
      "stateMutability": "view",
      "type": "function"
    },
    {
      "inputs": [
        {
          "internalType": "string",
          "name": "schemeName",
          "type": "string"
        },
        {
          "internalType": "uint256",
          "name": "amount",
          "type": "uint256"
        },
        {
          "internalType": "uint256",
          "name": "validity_time",
          "type": "uint256"
        },
        {
          "internalType": "string",
          "name": "identifier",
          "type": "string"
        }
      ],
      "name": "makeScheme",
      "outputs": [],
      "stateMutability": "nonpayable",
      "type": "function"
    },
    {
      "inputs": [
        {
          "internalType": "address",
          "name": "",
          "type": "address"
        }
      ],
      "name": "merchants",
      "outputs": [
        {
          "internalType": "string",
          "name": "name",
          "type": "string"
        },
        {
          "internalType": "address",
          "name": "walletAddress",
          "type": "address"
        },
        {
          "internalType": "string",
          "name": "verifier",
          "type": "string"
        },
        {
          "internalType": "string",
          "name": "merchantIdentifier",
          "type": "string"
        }
      ],
      "stateMutability": "view",
      "type": "function"
    },
    {
      "inputs": [
        {
          "internalType": "address",
          "name": "to",
          "type": "address"
        },
        {
          "internalType": "uint256",
          "name": "amount",
          "type": "uint256"
        }
      ],
      "name": "mint",
      "outputs": [],
      "stateMutability": "nonpayable",
      "type": "function"
    },
    {
      "inputs": [],
      "name": "name",
      "outputs": [
        {
          "internalType": "string",
          "name": "",
          "type": "string"
        }
      ],
      "stateMutability": "view",
      "type": "function"
    },
    {
      "inputs": [
        {
          "internalType": "address",
          "name": "owner",
          "type": "address"
        }
      ],
      "name": "nonces",
      "outputs": [
        {
          "internalType": "uint256",
          "name": "",
          "type": "uint256"
        }
      ],
      "stateMutability": "view",
      "type": "function"
    },
    {
      "inputs": [
        {
          "internalType": "address",
          "name": "merchantAddress",
          "type": "address"
        },
        {
          "internalType": "uint256",
          "name": "amount",
          "type": "uint256"
        }
      ],
      "name": "payMerchant",
      "outputs": [],
      "stateMutability": "nonpayable",
      "type": "function"
    },
    {
      "inputs": [
        {
          "internalType": "address",
          "name": "owner",
          "type": "address"
        },
        {
          "internalType": "address",
          "name": "spender",
          "type": "address"
        },
        {
          "internalType": "uint256",
          "name": "value",
          "type": "uint256"
        },
        {
          "internalType": "uint256",
          "name": "deadline",
          "type": "uint256"
        },
        {
          "internalType": "uint8",
          "name": "v",
          "type": "uint8"
        },
        {
          "internalType": "bytes32",
          "name": "r",
          "type": "bytes32"
        },
        {
          "internalType": "bytes32",
          "name": "s",
          "type": "bytes32"
        }
      ],
      "name": "permit",
      "outputs": [],
      "stateMutability": "nonpayable",
      "type": "function"
    },
    {
      "inputs": [
        {
          "internalType": "string",
          "name": "name",
          "type": "string"
        }
      ],
      "name": "registerDepartment",
      "outputs": [],
      "stateMutability": "nonpayable",
      "type": "function"
    },
    {
      "inputs": [
        {
          "internalType": "string",
          "name": "name",
          "type": "string"
        },
        {
          "internalType": "string",
          "name": "verifier",
          "type": "string"
        },
        {
          "internalType": "string",
          "name": "merchantIdentifier",
          "type": "string"
        }
      ],
      "name": "registerMerchant",
      "outputs": [],
      "stateMutability": "nonpayable",
      "type": "function"
    },
    {
      "inputs": [
        {
          "internalType": "string",
          "name": "name",
          "type": "string"
        },
        {
          "internalType": "string",
          "name": "aadharQRCode",
          "type": "string"
        },
        {
          "internalType": "string[]",
          "name": "ids",
          "type": "string[]"
        }
      ],
      "name": "registerUser",
      "outputs": [],
      "stateMutability": "nonpayable",
      "type": "function"
    },
    {
      "inputs": [
        {
          "internalType": "bytes32",
          "name": "role",
          "type": "bytes32"
        },
        {
          "internalType": "address",
          "name": "account",
          "type": "address"
        }
      ],
      "name": "renounceRole",
      "outputs": [],
      "stateMutability": "nonpayable",
      "type": "function"
    },
    {
      "inputs": [
        {
          "internalType": "bytes32",
          "name": "role",
          "type": "bytes32"
        },
        {
          "internalType": "address",
          "name": "account",
          "type": "address"
        }
      ],
      "name": "revokeRole",
      "outputs": [],
      "stateMutability": "nonpayable",
      "type": "function"
    },
    {
      "inputs": [
        {
          "internalType": "bytes4",
          "name": "interfaceId",
          "type": "bytes4"
        }
      ],
      "name": "supportsInterface",
      "outputs": [
        {
          "internalType": "bool",
          "name": "",
          "type": "bool"
        }
      ],
      "stateMutability": "view",
      "type": "function"
    },
    {
      "inputs": [],
      "name": "symbol",
      "outputs": [
        {
          "internalType": "string",
          "name": "",
          "type": "string"
        }
      ],
      "stateMutability": "view",
      "type": "function"
    },
    {
      "inputs": [],
      "name": "totalSupply",
      "outputs": [
        {
          "internalType": "uint256",
          "name": "",
          "type": "uint256"
        }
      ],
      "stateMutability": "view",
      "type": "function"
    },
    {
      "inputs": [
        {
          "internalType": "address",
          "name": "to",
          "type": "address"
        },
        {
          "internalType": "uint256",
          "name": "amount",
          "type": "uint256"
        }
      ],
      "name": "transfer",
      "outputs": [
        {
          "internalType": "bool",
          "name": "",
          "type": "bool"
        }
      ],
      "stateMutability": "nonpayable",
      "type": "function"
    },
    {
      "inputs": [
        {
          "internalType": "address",
          "name": "from",
          "type": "address"
        },
        {
          "internalType": "address",
          "name": "to",
          "type": "address"
        },
        {
          "internalType": "uint256",
          "name": "amount",
          "type": "uint256"
        }
      ],
      "name": "transferFrom",
      "outputs": [
        {
          "internalType": "bool",
          "name": "",
          "type": "bool"
        }
      ],
      "stateMutability": "nonpayable",
      "type": "function"
    },
    {
      "inputs": [
        {
          "internalType": "uint256",
          "name": "",
          "type": "uint256"
        }
      ],
      "name": "userAddresses",
      "outputs": [
        {
          "internalType": "address",
          "name": "",
          "type": "address"
        }
      ],
      "stateMutability": "view",
      "type": "function"
    },
    {
      "inputs": [],
      "name": "userCount",
      "outputs": [
        {
          "internalType": "uint256",
          "name": "",
          "type": "uint256"
        }
      ],
      "stateMutability": "view",
      "type": "function"
    },
    {
      "inputs": [
        {
          "internalType": "address",
          "name": "",
          "type": "address"
        },
        {
          "internalType": "uint256",
          "name": "",
          "type": "uint256"
        }
      ],
      "name": "userSchemes",
      "outputs": [
        {
          "internalType": "string",
          "name": "name",
          "type": "string"
        },
        {
          "internalType": "uint256",
          "name": "amount",
          "type": "uint256"
        },
        {
          "internalType": "uint256",
          "name": "validity_time",
          "type": "uint256"
        },
        {
          "internalType": "string",
          "name": "identifier",
          "type": "string"
        }
      ],
      "stateMutability": "view",
      "type": "function"
    },
    {
      "inputs": [
        {
          "internalType": "address",
          "name": "",
          "type": "address"
        }
      ],
      "name": "users",
      "outputs": [
        {
          "internalType": "string",
          "name": "name",
          "type": "string"
        },
        {
          "internalType": "address",
          "name": "walletAddress",
          "type": "address"
        },
        {
          "internalType": "string",
          "name": "aadharQRCode",
          "type": "string"
        },
        {
          "internalType": "bool",
          "name": "isAuthenticated",
          "type": "bool"
        }
      ],
      "stateMutability": "view",
      "type": "function"
    }
  ],
  "transactionHash": "0xe00a4c84836480f6200e6df285070f734c85703d6c89fbde27a7c2669ba43f42",
  "args": [
    "0x46936b95Abb6e9639fD0Fe2462b68547404F7E53",
    "0x46936b95Abb6e9639fD0Fe2462b68547404F7E53"
  ],
  "numDeployments": 1,
  "solcInputHash": "2b44625c0db01f56b0a52f6c1e874c30",
  "bytecode": "0x61016060405234801561001157600080fd5b50604051613fad380380613fad833981016040819052610030916103e3565b604051806040016040528060048152602001634342444360e01b81525080604051806040016040528060018152602001603160f81b8152506040518060400160405280601d81526020017f43656e7472616c2042616e6b204469676974616c2043757272656e6379000000815250604051806040016040528060048152602001634342444360e01b81525081600390816100ca91906104b6565b5060046100d782826104b6565b506100e7915083905060066101ea565b610120526100f68160076101ea565b61014052815160208084019190912060e052815190820120610100524660a05261018360e05161010051604080517f8b73c3c69bb8fe3d512ecc4cf759cc79239f7b179b0ffacaa9a75d522b39400f60208201529081019290925260608201524660808201523060a082015260009060c00160405160208183030381529060405280519060200120905090565b60805250503060c052506101ae3361019d6012600a61066f565b6101a990612710610685565b61021d565b6101b96000836102e2565b6101e37f9f2df0fed2c77648de5860a4cc508cd0818c85b8b8a1ab4ceeef8d981c8956a6826102e2565b5050610722565b6000602083511015610206576101ff83610384565b9050610217565b8161021184826104b6565b5060ff90505b92915050565b6001600160a01b0382166102785760405162461bcd60e51b815260206004820152601f60248201527f45524332303a206d696e7420746f20746865207a65726f20616464726573730060448201526064015b60405180910390fd5b806002600082825461028a919061069c565b90915550506001600160a01b038216600081815260208181526040808320805486019055518481527fddf252ad1be2c89b69c2b068fc378daa952ba7f163c4a11628f55a4df523b3ef910160405180910390a35b5050565b60008281526005602090815260408083206001600160a01b038516845290915290205460ff166102de5760008281526005602090815260408083206001600160a01b03851684529091529020805460ff191660011790556103403390565b6001600160a01b0316816001600160a01b0316837f2f8788117e7eff1d82e926ec794901d17c78024a50270940304540a733656f0d60405160405180910390a45050565b600080829050601f815111156103af578260405163305a27a960e01b815260040161026f91906106af565b80516103ba826106fe565b179392505050565b505050565b80516001600160a01b03811681146103de57600080fd5b919050565b600080604083850312156103f657600080fd5b6103ff836103c7565b915061040d602084016103c7565b90509250929050565b634e487b7160e01b600052604160045260246000fd5b600181811c9082168061044057607f821691505b60208210810361046057634e487b7160e01b600052602260045260246000fd5b50919050565b601f8211156103c2576000816000526020600020601f850160051c8101602086101561048f5750805b601f850160051c820191505b818110156104ae5782815560010161049b565b505050505050565b81516001600160401b038111156104cf576104cf610416565b6104e3816104dd845461042c565b84610466565b602080601f83116001811461051857600084156105005750858301515b600019600386901b1c1916600185901b1785556104ae565b600085815260208120601f198616915b8281101561054757888601518255948401946001909101908401610528565b50858210156105655787850151600019600388901b60f8161c191681555b5050505050600190811b01905550565b634e487b7160e01b600052601160045260246000fd5b600181815b808511156105c65781600019048211156105ac576105ac610575565b808516156105b957918102915b93841c9390800290610590565b509250929050565b6000826105dd57506001610217565b816105ea57506000610217565b8160018114610600576002811461060a57610626565b6001915050610217565b60ff84111561061b5761061b610575565b50506001821b610217565b5060208310610133831016604e8410600b8410161715610649575081810a610217565b610653838361058b565b806000190482111561066757610667610575565b029392505050565b600061067e60ff8416836105ce565b9392505050565b808202811582820484141761021757610217610575565b8082018082111561021757610217610575565b60006020808352835180602085015260005b818110156106dd578581018301518582016040015282016106c1565b506000604082860101526040601f19601f8301168501019250505092915050565b805160208083015191908110156104605760001960209190910360031b1b16919050565b60805160a05160c05160e05161010051610120516101405161383161077c60003960006111e4015260006111b90152600061234a015260006123220152600061227d015260006122a7015260006122d101526138316000f3fe608060405234801561001057600080fd5b506004361061025d5760003560e01c806370a0823111610146578063a87430ba116100c3578063dd62ed3e11610087578063dd62ed3e1461059f578063dfa0dd79146105b2578063e286bc22146105c5578063e7a8c912146105e5578063ee14e939146105f8578063f1d43ee81461061b57600080fd5b8063a87430ba1461051c578063a9059cbb1461053f578063d505accf14610552578063d539139314610565578063d547741f1461058c57600080fd5b806391d148541161010a57806391d14854146104bf57806395d89b41146104d2578063996dc022146104da578063a217fddf14610501578063a457c2d71461050957600080fd5b806370a0823114610432578063717ca6811461045b57806379cc67901461047e5780637ecebe001461049157806384b0196e146104a457600080fd5b80633060a436116101df5780633de4436f116101a35780633de4436f1461038757806340c10f19146103aa57806342966c68146103bd578063502c9bd5146103d05780636694dd38146103fb578063695b449c1461041c57600080fd5b80633060a43614610337578063313ce5671461034a5780633644e5151461035957806336568abe14610361578063395093511461037457600080fd5b806318160ddd1161022657806318160ddd146102d357806323b872dd146102db578063248a9ca3146102ee57806329b75b74146103115780632f2ff15d1461032457600080fd5b80625ce66f1461026257806301ffc9a71461026c57806306fdde031461029457806307973ccf146102a9578063095ea7b3146102c0575b600080fd5b61026a61062e565b005b61027f61027a366004612cf2565b6106ed565b60405190151581526020015b60405180910390f35b61029c610724565b60405161028b9190612d6c565b6102b2600a5481565b60405190815260200161028b565b61027f6102ce366004612d9b565b6107b6565b6002546102b2565b61027f6102e9366004612dc5565b6107ce565b6102b26102fc366004612e01565b60009081526005602052604090206001015490565b61026a61031f366004612d9b565b6107f2565b61026a610332366004612e1a565b610b55565b61026a610345366004612efd565b610b7f565b6040516012815260200161028b565b6102b2610c6c565b61026a61036f366004612e1a565b610c7b565b61027f610382366004612d9b565b610cf9565b61039a610395366004612d9b565b610d1b565b60405161028b9493929190612f3a565b61026a6103b8366004612d9b565b610e78565b61026a6103cb366004612e01565b610eac565b6103e36103de366004612e01565b610eb9565b6040516001600160a01b03909116815260200161028b565b61040e610409366004612f76565b610ee3565b60405161028b929190612f91565b610424610f90565b60405161028b929190612ff7565b6102b2610440366004612f76565b6001600160a01b031660009081526020819052604090205490565b61027f610469366004612f76565b600f6020526000908152604090205460ff1681565b61026a61048c366004612d9b565b61115f565b6102b261049f366004612f76565b61118d565b6104ac6111ab565b60405161028b979695949392919061306e565b61027f6104cd366004612e1a565b611234565b61029c61125f565b6102b27fe7837d04f36ce0b2f3cc662bf1b2b632a7fbd12ae95199e8bd3dcfbcc440b66b81565b6102b2600081565b61027f610517366004612d9b565b61126e565b61052f61052a366004612f76565b6112e9565b60405161028b94939291906130de565b61027f61054d366004612d9b565b611433565b61026a610560366004613126565b611441565b6102b27f9f2df0fed2c77648de5860a4cc508cd0818c85b8b8a1ab4ceeef8d981c8956a681565b61026a61059a366004612e1a565b6115a5565b6102b26105ad366004613199565b6115ca565b61026a6105c03660046131c3565b6115f5565b6105d86105d3366004612f76565b61178e565b60405161028b919061324b565b61026a6105f33660046132e9565b61193b565b61060b610606366004612f76565b611b60565b60405161028b94939291906133f3565b61026a61062936600461343b565b611cac565b336000908152600c60205260409020600101546001600160a01b03166106915760405162461bcd60e51b8152602060048201526013602482015272155cd95c881b9bdd081c9959da5cdd195c9959606a1b60448201526064015b60405180910390fd5b336000818152600c602090815260408083206003018054600160ff199182168117909255600f909352818420805490931617909155517fc33c48353ef54fd43cb788278ab804ec5fe708d0a0a7d9169563cdb83e0136279190a2565b60006001600160e01b03198216637965db0b60e01b148061071e57506301ffc9a760e01b6001600160e01b03198316145b92915050565b606060038054610733906134b2565b80601f016020809104026020016040519081016040528092919081815260200182805461075f906134b2565b80156107ac5780601f10610781576101008083540402835291602001916107ac565b820191906000526020600020905b81548152906001019060200180831161078f57829003601f168201915b5050505050905090565b6000336107c4818585611e9e565b5060019392505050565b6000336107dc858285611fc2565b6107e785858561203c565b506001949350505050565b6001600160a01b038281166000908152600d60205260409020600101541661085c5760405162461bcd60e51b815260206004820152601760248201527f4d65726368616e74206e6f7420726567697374657265640000000000000000006044820152606401610688565b336000908152600c60205260409020600101546001600160a01b03166108ba5760405162461bcd60e51b8152602060048201526013602482015272155cd95c881b9bdd081c9959da5cdd195c9959606a1b6044820152606401610688565b336000908152602081905260409020548111156109105760405162461bcd60e51b8152602060048201526014602482015273496e73756666696369656e742062616c616e636560601b6044820152606401610688565b6001600160a01b0382166000908152600d602052604081206003018054610936906134b2565b80601f0160208091040260200160405190810160405280929190818152602001828054610962906134b2565b80156109af5780601f10610984576101008083540402835291602001916109af565b820191906000526020600020905b81548152906001019060200180831161099257829003601f168201915b5050336000908152601060205260408120949550925050505b8154811015610b0c57826040516020016109e291906134e6565b60405160208183030381529060405280519060200120828281548110610a0a57610a0a613502565b9060005260206000209060040201600301604051602001610a2b9190613518565b6040516020818303038152906040528051906020012003610b045783828281548110610a5957610a59613502565b9060005260206000209060040201600101541015610ab95760405162461bcd60e51b815260206004820152601a60248201527f536368656d6520616d6f756e7420696e73756666696369656e740000000000006044820152606401610688565b83828281548110610acc57610acc613502565b90600052602060002090600402016001016000828254610aec91906135a4565b90915550610afd905033868661203c565b5050505050565b6001016109c8565b5060405162461bcd60e51b815260206004820152601860248201527f4e6f206d61746368696e6720736368656d6520666f756e6400000000000000006044820152606401610688565b600082815260056020526040902060010154610b70816121e0565b610b7a83836121ea565b505050565b6000815111610ba05760405162461bcd60e51b8152600401610688906135b7565b6040805180820182528281523360208083018290526000918252600e90529190912081518291908190610bd39082613631565b5060209190910151600190910180546001600160a01b0319166001600160a01b03909216919091179055610c277fe7837d04f36ce0b2f3cc662bf1b2b632a7fbd12ae95199e8bd3dcfbcc440b66b336121ea565b336001600160a01b03167fd3218b5f038252a28b1f3b7824d86312d71c3138c6db02dcff219bfcd0f6dc3f83604051610c609190612d6c565b60405180910390a25050565b6000610c76612270565b905090565b6001600160a01b0381163314610ceb5760405162461bcd60e51b815260206004820152602f60248201527f416363657373436f6e74726f6c3a2063616e206f6e6c792072656e6f756e636560448201526e103937b632b9903337b91039b2b63360891b6064820152608401610688565b610cf5828261239b565b5050565b6000336107c4818585610d0c83836115ca565b610d1691906136f1565b611e9e565b60106020528160005260406000208181548110610d3757600080fd5b906000526020600020906004020160009150915050806000018054610d5b906134b2565b80601f0160208091040260200160405190810160405280929190818152602001828054610d87906134b2565b8015610dd45780601f10610da957610100808354040283529160200191610dd4565b820191906000526020600020905b815481529060010190602001808311610db757829003601f168201915b505050505090806001015490806002015490806003018054610df5906134b2565b80601f0160208091040260200160405190810160405280929190818152602001828054610e21906134b2565b8015610e6e5780601f10610e4357610100808354040283529160200191610e6e565b820191906000526020600020905b815481529060010190602001808311610e5157829003601f168201915b5050505050905084565b7f9f2df0fed2c77648de5860a4cc508cd0818c85b8b8a1ab4ceeef8d981c8956a6610ea2816121e0565b610b7a8383612402565b610eb633826124c1565b50565b600b8181548110610ec957600080fd5b6000918252602090912001546001600160a01b0316905081565b600e60205260009081526040902080548190610efe906134b2565b80601f0160208091040260200160405190810160405280929190818152602001828054610f2a906134b2565b8015610f775780601f10610f4c57610100808354040283529160200191610f77565b820191906000526020600020905b815481529060010190602001808311610f5a57829003601f168201915b505050600190930154919250506001600160a01b031682565b3360009081526010602052604090208054606091829167ffffffffffffffff811115610fbe57610fbe612e46565b604051908082528060200260200182016040528015610ff157816020015b6060815260200190600190039081610fdc5790505b50815490935067ffffffffffffffff81111561100f5761100f612e46565b604051908082528060200260200182016040528015611038578160200160208202803683370190505b50915060005b81548110156111595781818154811061105957611059613502565b90600052602060002090600402016000018054611075906134b2565b80601f01602080910402602001604051908101604052809291908181526020018280546110a1906134b2565b80156110ee5780601f106110c3576101008083540402835291602001916110ee565b820191906000526020600020905b8154815290600101906020018083116110d157829003601f168201915b505050505084828151811061110557611105613502565b602002602001018190525081818154811061112257611122613502565b90600052602060002090600402016001015483828151811061114657611146613502565b602090810291909101015260010161103e565b50509091565b60008161116c84336115ca565b61117691906135a4565b9050611183833383611e9e565b610b7a83836124c1565b6001600160a01b03811660009081526008602052604081205461071e565b6000606080828080836111df7f000000000000000000000000000000000000000000000000000000000000000060066125f3565b61120a7f000000000000000000000000000000000000000000000000000000000000000060076125f3565b60408051600080825260208201909252600f60f81b9b939a50919850469750309650945092509050565b60009182526005602090815260408084206001600160a01b0393909316845291905290205460ff1690565b606060048054610733906134b2565b6000338161127c82866115ca565b9050838110156112dc5760405162461bcd60e51b815260206004820152602560248201527f45524332303a2064656372656173656420616c6c6f77616e63652062656c6f77604482015264207a65726f60d81b6064820152608401610688565b6107e78286868403611e9e565b600c60205260009081526040902080548190611304906134b2565b80601f0160208091040260200160405190810160405280929190818152602001828054611330906134b2565b801561137d5780601f106113525761010080835404028352916020019161137d565b820191906000526020600020905b81548152906001019060200180831161136057829003601f168201915b505050600184015460028501805494956001600160a01b039092169491935091506113a7906134b2565b80601f01602080910402602001604051908101604052809291908181526020018280546113d3906134b2565b80156114205780601f106113f557610100808354040283529160200191611420565b820191906000526020600020905b81548152906001019060200180831161140357829003601f168201915b5050506003909301549192505060ff1684565b6000336107c481858561203c565b834211156114915760405162461bcd60e51b815260206004820152601d60248201527f45524332305065726d69743a206578706972656420646561646c696e650000006044820152606401610688565b60007f6e71edae12b1b97f4d1f60370fef10105fa2faae0126114a169c64845d6126c98888886114c08c61269e565b6040805160208101969096526001600160a01b0394851690860152929091166060840152608083015260a082015260c0810186905260e001604051602081830303815290604052805190602001209050600061151b826126c6565b9050600061152b828787876126f3565b9050896001600160a01b0316816001600160a01b03161461158e5760405162461bcd60e51b815260206004820152601e60248201527f45524332305065726d69743a20696e76616c6964207369676e617475726500006044820152606401610688565b6115998a8a8a611e9e565b50505050505050505050565b6000828152600560205260409020600101546115c0816121e0565b610b7a838361239b565b6001600160a01b03918216600090815260016020908152604080832093909416825291909152205490565b60008351116116165760405162461bcd60e51b8152600401610688906135b7565b60008251116116675760405162461bcd60e51b815260206004820152601a60248201527f41616468617220515220436f64652069732072657175697265640000000000006044820152606401610688565b60008151116116b85760405162461bcd60e51b815260206004820152601f60248201527f4d65726368616e74204964656e746966696572206973207265717569726564006044820152606401610688565b60408051608081018252848152336020808301829052828401869052606083018590526000918252600d905291909120815182919081906116f99082613631565b5060208201516001820180546001600160a01b0319166001600160a01b03909216919091179055604082015160028201906117349082613631565b50606082015160038201906117499082613631565b50506040513391507f7476726b1d8882ab8352f5af9fb6c3dfab81c79b6a107ef114d5472393a75953906117809087908690613704565b60405180910390a250505050565b6001600160a01b0381166000908152601060209081526040808320805482518185028101850190935280835260609492939192909184015b8282101561193057838290600052602060002090600402016040518060800160405290816000820180546117f9906134b2565b80601f0160208091040260200160405190810160405280929190818152602001828054611825906134b2565b80156118725780601f1061184757610100808354040283529160200191611872565b820191906000526020600020905b81548152906001019060200180831161185557829003601f168201915b50505050508152602001600182015481526020016002820154815260200160038201805461189f906134b2565b80601f01602080910402602001604051908101604052809291908181526020018280546118cb906134b2565b80156119185780601f106118ed57610100808354040283529160200191611918565b820191906000526020600020905b8154815290600101906020018083116118fb57829003601f168201915b505050505081525050815260200190600101906117c6565b505050509050919050565b600083511161195c5760405162461bcd60e51b8152600401610688906135b7565b60008251116119ad5760405162461bcd60e51b815260206004820152601a60248201527f41616468617220515220436f64652069732072657175697265640000000000006044820152606401610688565b336000908152600c60205260409020600101546001600160a01b031615611a165760405162461bcd60e51b815260206004820152601760248201527f5573657220616c726561647920726567697374657265640000000000000000006044820152606401610688565b6040805160a08101825284815233602080830182905282840186905260006060840181905260808401869052918252600c90529190912081518291908190611a5e9082613631565b5060208201516001820180546001600160a01b0319166001600160a01b0390921691909117905560408201516002820190611a999082613631565b50606082015160038201805460ff191691151591909117905560808201518051611acd916004840191602090910190612c35565b5050600b805460018101825560009182527f0175b7a638427703f0dbe7bb9bbf987a2551717b34e79f33b5b1008d1fa01db90180546001600160a01b03191633179055600a8054925090611b2083613729565b9190505550336001600160a01b03167f92822564bab8864c3a47b34e8d23fbce5c46234eb5da261f94087b995ac0f33b8585604051611780929190613704565b600d60205260009081526040902080548190611b7b906134b2565b80601f0160208091040260200160405190810160405280929190818152602001828054611ba7906134b2565b8015611bf45780601f10611bc957610100808354040283529160200191611bf4565b820191906000526020600020905b815481529060010190602001808311611bd757829003601f168201915b505050600184015460028501805494956001600160a01b03909216949193509150611c1e906134b2565b80601f0160208091040260200160405190810160405280929190818152602001828054611c4a906134b2565b8015611c975780601f10611c6c57610100808354040283529160200191611c97565b820191906000526020600020905b815481529060010190602001808311611c7a57829003601f168201915b505050505090806003018054610df5906134b2565b7fe7837d04f36ce0b2f3cc662bf1b2b632a7fbd12ae95199e8bd3dcfbcc440b66b611cd6816121e0565b60008411611d265760405162461bcd60e51b815260206004820152601d60248201527f416d6f756e74206d7573742062652067726561746572207468616e20300000006044820152606401610688565b600060405180608001604052808781526020018681526020014286611d4b91906136f1565b8152602001849052905060005b600b54811015611e95576000600b8281548110611d7757611d77613502565b60009182526020808320909101546001600160a01b0316808352600f90915260409091205490915060ff168015611dce57506001600160a01b0381166000908152600c60205260409020611dce906004018661271b565b15611e8c57611dde33828961203c565b6001600160a01b038116600090815260106020908152604082208054600181018255908352912084518592600402909101908190611e1c9082613631565b50602082015160018201556040820151600282015560608201516003820190611e459082613631565b505050806001600160a01b03167f21d739f160a7464fddaac4a1d1517d84e76b75618a053943b345c408c4160fe088604051611e8391815260200190565b60405180910390a25b50600101611d58565b50505050505050565b6001600160a01b038316611f005760405162461bcd60e51b8152602060048201526024808201527f45524332303a20617070726f76652066726f6d20746865207a65726f206164646044820152637265737360e01b6064820152608401610688565b6001600160a01b038216611f615760405162461bcd60e51b815260206004820152602260248201527f45524332303a20617070726f766520746f20746865207a65726f206164647265604482015261737360f01b6064820152608401610688565b6001600160a01b0383811660008181526001602090815260408083209487168084529482529182902085905590518481527f8c5be1e5ebec7d5bd14f71427d1e84f3dd0314c0f7b2291e5b200ac8c7c3b925910160405180910390a3505050565b6000611fce84846115ca565b9050600019811461203657818110156120295760405162461bcd60e51b815260206004820152601d60248201527f45524332303a20696e73756666696369656e7420616c6c6f77616e63650000006044820152606401610688565b6120368484848403611e9e565b50505050565b6001600160a01b0383166120a05760405162461bcd60e51b815260206004820152602560248201527f45524332303a207472616e736665722066726f6d20746865207a65726f206164604482015264647265737360d81b6064820152608401610688565b6001600160a01b0382166121025760405162461bcd60e51b815260206004820152602360248201527f45524332303a207472616e7366657220746f20746865207a65726f206164647260448201526265737360e81b6064820152608401610688565b6001600160a01b0383166000908152602081905260409020548181101561217a5760405162461bcd60e51b815260206004820152602660248201527f45524332303a207472616e7366657220616d6f756e7420657863656564732062604482015265616c616e636560d01b6064820152608401610688565b6001600160a01b03848116600081815260208181526040808320878703905593871680835291849020805487019055925185815290927fddf252ad1be2c89b69c2b068fc378daa952ba7f163c4a11628f55a4df523b3ef910160405180910390a3612036565b610eb681336127b2565b6121f48282611234565b610cf55760008281526005602090815260408083206001600160a01b03851684529091529020805460ff1916600117905561222c3390565b6001600160a01b0316816001600160a01b0316837f2f8788117e7eff1d82e926ec794901d17c78024a50270940304540a733656f0d60405160405180910390a45050565b6000306001600160a01b037f0000000000000000000000000000000000000000000000000000000000000000161480156122c957507f000000000000000000000000000000000000000000000000000000000000000046145b156122f357507f000000000000000000000000000000000000000000000000000000000000000090565b610c76604080517f8b73c3c69bb8fe3d512ecc4cf759cc79239f7b179b0ffacaa9a75d522b39400f60208201527f0000000000000000000000000000000000000000000000000000000000000000918101919091527f000000000000000000000000000000000000000000000000000000000000000060608201524660808201523060a082015260009060c00160405160208183030381529060405280519060200120905090565b6123a58282611234565b15610cf55760008281526005602090815260408083206001600160a01b0385168085529252808320805460ff1916905551339285917ff6391f5c32d9c69d2a47ea670b442974b53935d1edc7fd64eb21e047a839171b9190a45050565b6001600160a01b0382166124585760405162461bcd60e51b815260206004820152601f60248201527f45524332303a206d696e7420746f20746865207a65726f2061646472657373006044820152606401610688565b806002600082825461246a91906136f1565b90915550506001600160a01b038216600081815260208181526040808320805486019055518481527fddf252ad1be2c89b69c2b068fc378daa952ba7f163c4a11628f55a4df523b3ef910160405180910390a35050565b6001600160a01b0382166125215760405162461bcd60e51b815260206004820152602160248201527f45524332303a206275726e2066726f6d20746865207a65726f206164647265736044820152607360f81b6064820152608401610688565b6001600160a01b038216600090815260208190526040902054818110156125955760405162461bcd60e51b815260206004820152602260248201527f45524332303a206275726e20616d6f756e7420657863656564732062616c616e604482015261636560f01b6064820152608401610688565b6001600160a01b0383166000818152602081815260408083208686039055600280548790039055518581529192917fddf252ad1be2c89b69c2b068fc378daa952ba7f163c4a11628f55a4df523b3ef910160405180910390a3505050565b606060ff831461260d576126068361280b565b905061071e565b818054612619906134b2565b80601f0160208091040260200160405190810160405280929190818152602001828054612645906134b2565b80156126925780601f1061266757610100808354040283529160200191612692565b820191906000526020600020905b81548152906001019060200180831161267557829003601f168201915b5050505050905061071e565b6001600160a01b03811660009081526008602052604090208054600181018255905b50919050565b600061071e6126d3612270565b8360405161190160f01b8152600281019290925260228201526042902090565b60008060006127048787878761284a565b915091506127118161290e565b5095945050505050565b6000805b83548110156127a8578260405160200161273991906134e6565b6040516020818303038152906040528051906020012084828154811061276157612761613502565b9060005260206000200160405160200161277b9190613518565b60405160208183030381529060405280519060200120036127a057600191505061071e565b60010161271f565b5060009392505050565b6127bc8282611234565b610cf5576127c981612a58565b6127d4836020612a6a565b6040516020016127e5929190613742565b60408051601f198184030181529082905262461bcd60e51b825261068891600401612d6c565b6060600061281883612c0d565b604080516020808252818301909252919250600091906020820181803683375050509182525060208101929092525090565b6000807f7fffffffffffffffffffffffffffffff5d576e7357a4501ddfe92f46681b20a08311156128815750600090506003612905565b6040805160008082526020820180845289905260ff881692820192909252606081018690526080810185905260019060a0016020604051602081039080840390855afa1580156128d5573d6000803e3d6000fd5b5050604051601f1901519150506001600160a01b0381166128fe57600060019250925050612905565b9150600090505b94509492505050565b6000816004811115612922576129226137b7565b0361292a5750565b600181600481111561293e5761293e6137b7565b0361298b5760405162461bcd60e51b815260206004820152601860248201527f45434453413a20696e76616c6964207369676e617475726500000000000000006044820152606401610688565b600281600481111561299f5761299f6137b7565b036129ec5760405162461bcd60e51b815260206004820152601f60248201527f45434453413a20696e76616c6964207369676e6174757265206c656e677468006044820152606401610688565b6003816004811115612a0057612a006137b7565b03610eb65760405162461bcd60e51b815260206004820152602260248201527f45434453413a20696e76616c6964207369676e6174757265202773272076616c604482015261756560f01b6064820152608401610688565b606061071e6001600160a01b03831660145b60606000612a798360026137cd565b612a849060026136f1565b67ffffffffffffffff811115612a9c57612a9c612e46565b6040519080825280601f01601f191660200182016040528015612ac6576020820181803683370190505b509050600360fc1b81600081518110612ae157612ae1613502565b60200101906001600160f81b031916908160001a905350600f60fb1b81600181518110612b1057612b10613502565b60200101906001600160f81b031916908160001a9053506000612b348460026137cd565b612b3f9060016136f1565b90505b6001811115612bb7576f181899199a1a9b1b9c1cb0b131b232b360811b85600f1660108110612b7357612b73613502565b1a60f81b828281518110612b8957612b89613502565b60200101906001600160f81b031916908160001a90535060049490941c93612bb0816137e4565b9050612b42565b508315612c065760405162461bcd60e51b815260206004820181905260248201527f537472696e67733a20686578206c656e67746820696e73756666696369656e746044820152606401610688565b9392505050565b600060ff8216601f81111561071e57604051632cd44ac360e21b815260040160405180910390fd5b828054828255906000526020600020908101928215612c7b579160200282015b82811115612c7b5782518290612c6b9082613631565b5091602001919060010190612c55565b50612c87929150612c8b565b5090565b80821115612c87576000612c9f8282612ca8565b50600101612c8b565b508054612cb4906134b2565b6000825580601f10612cc4575050565b601f016020900490600052602060002090810190610eb691905b80821115612c875760008155600101612cde565b600060208284031215612d0457600080fd5b81356001600160e01b031981168114612c0657600080fd5b60005b83811015612d37578181015183820152602001612d1f565b50506000910152565b60008151808452612d58816020860160208601612d1c565b601f01601f19169290920160200192915050565b602081526000612c066020830184612d40565b80356001600160a01b0381168114612d9657600080fd5b919050565b60008060408385031215612dae57600080fd5b612db783612d7f565b946020939093013593505050565b600080600060608486031215612dda57600080fd5b612de384612d7f565b9250612df160208501612d7f565b9150604084013590509250925092565b600060208284031215612e1357600080fd5b5035919050565b60008060408385031215612e2d57600080fd5b82359150612e3d60208401612d7f565b90509250929050565b634e487b7160e01b600052604160045260246000fd5b604051601f8201601f1916810167ffffffffffffffff81118282101715612e8557612e85612e46565b604052919050565b600082601f830112612e9e57600080fd5b813567ffffffffffffffff811115612eb857612eb8612e46565b612ecb601f8201601f1916602001612e5c565b818152846020838601011115612ee057600080fd5b816020850160208301376000918101602001919091529392505050565b600060208284031215612f0f57600080fd5b813567ffffffffffffffff811115612f2657600080fd5b612f3284828501612e8d565b949350505050565b608081526000612f4d6080830187612d40565b8560208401528460408401528281036060840152612f6b8185612d40565b979650505050505050565b600060208284031215612f8857600080fd5b612c0682612d7f565b604081526000612fa46040830185612d40565b905060018060a01b03831660208301529392505050565b60008151808452602080850194506020840160005b83811015612fec57815187529582019590820190600101612fd0565b509495945050505050565b6000604082016040835280855180835260608501915060608160051b8601019250602080880160005b8381101561304e57605f1988870301855261303c868351612d40565b95509382019390820190600101613020565b505050505082810360208401526130658185612fbb565b95945050505050565b60ff60f81b8816815260e06020820152600061308d60e0830189612d40565b828103604084015261309f8189612d40565b606084018890526001600160a01b038716608085015260a0840186905283810360c085015290506130d08185612fbb565b9a9950505050505050505050565b6080815260006130f16080830187612d40565b6001600160a01b038616602084015282810360408401526131128186612d40565b915050821515606083015295945050505050565b600080600080600080600060e0888a03121561314157600080fd5b61314a88612d7f565b965061315860208901612d7f565b95506040880135945060608801359350608088013560ff8116811461317c57600080fd5b9699959850939692959460a0840135945060c09093013592915050565b600080604083850312156131ac57600080fd5b6131b583612d7f565b9150612e3d60208401612d7f565b6000806000606084860312156131d857600080fd5b833567ffffffffffffffff808211156131f057600080fd5b6131fc87838801612e8d565b9450602086013591508082111561321257600080fd5b61321e87838801612e8d565b9350604086013591508082111561323457600080fd5b5061324186828701612e8d565b9150509250925092565b600060208083018184528085518083526040925060408601915060408160051b87010184880160005b838110156132db57603f1989840301855281516080815181865261329a82870182612d40565b91505088820151898601528782015188860152606080830151925085820381870152506132c78183612d40565b968901969450505090860190600101613274565b509098975050505050505050565b6000806000606084860312156132fe57600080fd5b833567ffffffffffffffff8082111561331657600080fd5b61332287838801612e8d565b945060209150818601358181111561333957600080fd5b61334588828901612e8d565b94505060408601358181111561335a57600080fd5b8601601f8101881361336b57600080fd5b80358281111561337d5761337d612e46565b8060051b61338c858201612e5c565b918252828101850191858101908b8411156133a657600080fd5b86850192505b838310156133e2578235868111156133c45760008081fd5b6133d28d8983890101612e8d565b83525091860191908601906133ac565b809750505050505050509250925092565b6080815260006134066080830187612d40565b6001600160a01b038616602084015282810360408401526134278186612d40565b90508281036060840152612f6b8185612d40565b6000806000806080858703121561345157600080fd5b843567ffffffffffffffff8082111561346957600080fd5b61347588838901612e8d565b95506020870135945060408701359350606087013591508082111561349957600080fd5b506134a687828801612e8d565b91505092959194509250565b600181811c908216806134c657607f821691505b6020821081036126c057634e487b7160e01b600052602260045260246000fd5b600082516134f8818460208701612d1c565b9190910192915050565b634e487b7160e01b600052603260045260246000fd5b6000808354613526816134b2565b6001828116801561353e576001811461355357613582565b60ff1984168752821515830287019450613582565b8760005260208060002060005b858110156135795781548a820152908401908201613560565b50505082870194505b50929695505050505050565b634e487b7160e01b600052601160045260246000fd5b8181038181111561071e5761071e61358e565b60208082526010908201526f13985b59481a5cc81c995c5d5a5c995960821b604082015260600190565b601f821115610b7a576000816000526020600020601f850160051c8101602086101561360a5750805b601f850160051c820191505b8181101561362957828155600101613616565b505050505050565b815167ffffffffffffffff81111561364b5761364b612e46565b61365f8161365984546134b2565b846135e1565b602080601f831160018114613694576000841561367c5750858301515b600019600386901b1c1916600185901b178555613629565b600085815260208120601f198616915b828110156136c3578886015182559484019460019091019084016136a4565b50858210156136e15787850151600019600388901b60f8161c191681555b5050505050600190811b01905550565b8082018082111561071e5761071e61358e565b6040815260006137176040830185612d40565b82810360208401526130658185612d40565b60006001820161373b5761373b61358e565b5060010190565b7f416363657373436f6e74726f6c3a206163636f756e742000000000000000000081526000835161377a816017850160208801612d1c565b7001034b99036b4b9b9b4b733903937b6329607d1b60179184019182015283516137ab816028840160208801612d1c565b01602801949350505050565b634e487b7160e01b600052602160045260246000fd5b808202811582820484141761071e5761071e61358e565b6000816137f3576137f361358e565b50600019019056fea2646970667358221220ee582d268030a520a0c343b0f6be17db94e4fa5caa1f0ccf652fca363e58510d64736f6c63430008190033",
  "devdoc": {
    "events": {
      "Approval(address,address,uint256)": {
        "details": "Emitted when the allowance of a `spender` for an `owner` is set by a call to {approve}. `value` is the new allowance."
      },
      "EIP712DomainChanged()": {
        "details": "MAY be emitted to signal that the domain could have changed."
      },
      "RoleAdminChanged(bytes32,bytes32,bytes32)": {
        "details": "Emitted when `newAdminRole` is set as ``role``'s admin role, replacing `previousAdminRole` `DEFAULT_ADMIN_ROLE` is the starting admin for all roles, despite {RoleAdminChanged} not being emitted signaling this. _Available since v3.1._"
      },
      "RoleGranted(bytes32,address,address)": {
        "details": "Emitted when `account` is granted `role`. `sender` is the account that originated the contract call, an admin role bearer except when using {AccessControl-_setupRole}."
      },
      "RoleRevoked(bytes32,address,address)": {
        "details": "Emitted when `account` is revoked `role`. `sender` is the account that originated the contract call:   - if using `revokeRole`, it is the admin role bearer   - if using `renounceRole`, it is the role bearer (i.e. `account`)"
      },
      "Transfer(address,address,uint256)": {
        "details": "Emitted when `value` tokens are moved from one account (`from`) to another (`to`). Note that `value` may be zero."
      }
    },
    "kind": "dev",
    "methods": {
      "DOMAIN_SEPARATOR()": {
        "details": "Returns the domain separator used in the encoding of the signature for {permit}, as defined by {EIP712}."
      },
      "allowance(address,address)": {
        "details": "See {IERC20-allowance}."
      },
      "approve(address,uint256)": {
        "details": "See {IERC20-approve}. NOTE: If `amount` is the maximum `uint256`, the allowance is not updated on `transferFrom`. This is semantically equivalent to an infinite approval. Requirements: - `spender` cannot be the zero address."
      },
      "balanceOf(address)": {
        "details": "See {IERC20-balanceOf}."
      },
      "burn(uint256)": {
        "details": "Destroys `amount` tokens from the caller. See {ERC20-_burn}."
      },
      "burnFrom(address,uint256)": {
        "details": "Destroys `amount` tokens from `account`, deducting from the caller's allowance. See {ERC20-_burn} and {ERC20-allowance}. Requirements: - the caller must have allowance for ``accounts``'s tokens of at least `amount`."
      },
      "decimals()": {
        "details": "Returns the number of decimals used to get its user representation. For example, if `decimals` equals `2`, a balance of `505` tokens should be displayed to a user as `5.05` (`505 / 10 ** 2`). Tokens usually opt for a value of 18, imitating the relationship between Ether and Wei. This is the default value returned by this function, unless it's overridden. NOTE: This information is only used for _display_ purposes: it in no way affects any of the arithmetic of the contract, including {IERC20-balanceOf} and {IERC20-transfer}."
      },
      "decreaseAllowance(address,uint256)": {
        "details": "Atomically decreases the allowance granted to `spender` by the caller. This is an alternative to {approve} that can be used as a mitigation for problems described in {IERC20-approve}. Emits an {Approval} event indicating the updated allowance. Requirements: - `spender` cannot be the zero address. - `spender` must have allowance for the caller of at least `subtractedValue`."
      },
      "eip712Domain()": {
        "details": "See {EIP-5267}. _Available since v4.9._"
      },
      "getRoleAdmin(bytes32)": {
        "details": "Returns the admin role that controls `role`. See {grantRole} and {revokeRole}. To change a role's admin, use {_setRoleAdmin}."
      },
      "grantRole(bytes32,address)": {
        "details": "Grants `role` to `account`. If `account` had not been already granted `role`, emits a {RoleGranted} event. Requirements: - the caller must have ``role``'s admin role. May emit a {RoleGranted} event."
      },
      "hasRole(bytes32,address)": {
        "details": "Returns `true` if `account` has been granted `role`."
      },
      "increaseAllowance(address,uint256)": {
        "details": "Atomically increases the allowance granted to `spender` by the caller. This is an alternative to {approve} that can be used as a mitigation for problems described in {IERC20-approve}. Emits an {Approval} event indicating the updated allowance. Requirements: - `spender` cannot be the zero address."
      },
      "name()": {
        "details": "Returns the name of the token."
      },
      "nonces(address)": {
        "details": "Returns the current nonce for `owner`. This value must be included whenever a signature is generated for {permit}. Every successful call to {permit} increases ``owner``'s nonce by one. This prevents a signature from being used multiple times."
      },
      "permit(address,address,uint256,uint256,uint8,bytes32,bytes32)": {
        "details": "Sets `value` as the allowance of `spender` over ``owner``'s tokens, given ``owner``'s signed approval. IMPORTANT: The same issues {IERC20-approve} has related to transaction ordering also apply here. Emits an {Approval} event. Requirements: - `spender` cannot be the zero address. - `deadline` must be a timestamp in the future. - `v`, `r` and `s` must be a valid `secp256k1` signature from `owner` over the EIP712-formatted function arguments. - the signature must use ``owner``'s current nonce (see {nonces}). For more information on the signature format, see the https://eips.ethereum.org/EIPS/eip-2612#specification[relevant EIP section]. CAUTION: See Security Considerations above."
      },
      "renounceRole(bytes32,address)": {
        "details": "Revokes `role` from the calling account. Roles are often managed via {grantRole} and {revokeRole}: this function's purpose is to provide a mechanism for accounts to lose their privileges if they are compromised (such as when a trusted device is misplaced). If the calling account had been revoked `role`, emits a {RoleRevoked} event. Requirements: - the caller must be `account`. May emit a {RoleRevoked} event."
      },
      "revokeRole(bytes32,address)": {
        "details": "Revokes `role` from `account`. If `account` had been granted `role`, emits a {RoleRevoked} event. Requirements: - the caller must have ``role``'s admin role. May emit a {RoleRevoked} event."
      },
      "supportsInterface(bytes4)": {
        "details": "See {IERC165-supportsInterface}."
      },
      "symbol()": {
        "details": "Returns the symbol of the token, usually a shorter version of the name."
      },
      "totalSupply()": {
        "details": "See {IERC20-totalSupply}."
      },
      "transfer(address,uint256)": {
        "details": "See {IERC20-transfer}. Requirements: - `to` cannot be the zero address. - the caller must have a balance of at least `amount`."
      },
      "transferFrom(address,address,uint256)": {
        "details": "See {IERC20-transferFrom}. Emits an {Approval} event indicating the updated allowance. This is not required by the EIP. See the note at the beginning of {ERC20}. NOTE: Does not update the allowance if the current allowance is the maximum `uint256`. Requirements: - `from` and `to` cannot be the zero address. - `from` must have a balance of at least `amount`. - the caller must have allowance for ``from``'s tokens of at least `amount`."
      }
    },
    "version": 1
  },
  "userdoc": {
    "kind": "user",
    "methods": {},
    "version": 1
  },
  "storageLayout": {
    "storage": [
      {
        "astId": 429,
        "contract": "contracts/CivicFlow.sol:CivicFLow",
        "label": "_balances",
        "offset": 0,
        "slot": "0",
        "type": "t_mapping(t_address,t_uint256)"
      },
      {
        "astId": 435,
        "contract": "contracts/CivicFlow.sol:CivicFLow",
        "label": "_allowances",
        "offset": 0,
        "slot": "1",
        "type": "t_mapping(t_address,t_mapping(t_address,t_uint256))"
      },
      {
        "astId": 437,
        "contract": "contracts/CivicFlow.sol:CivicFLow",
        "label": "_totalSupply",
        "offset": 0,
        "slot": "2",
        "type": "t_uint256"
      },
      {
        "astId": 439,
        "contract": "contracts/CivicFlow.sol:CivicFLow",
        "label": "_name",
        "offset": 0,
        "slot": "3",
        "type": "t_string_storage"
      },
      {
        "astId": 441,
        "contract": "contracts/CivicFlow.sol:CivicFLow",
        "label": "_symbol",
        "offset": 0,
        "slot": "4",
        "type": "t_string_storage"
      },
      {
        "astId": 24,
        "contract": "contracts/CivicFlow.sol:CivicFLow",
        "label": "_roles",
        "offset": 0,
        "slot": "5",
        "type": "t_mapping(t_bytes32,t_struct(RoleData)19_storage)"
      },
      {
        "astId": 2413,
        "contract": "contracts/CivicFlow.sol:CivicFLow",
        "label": "_nameFallback",
        "offset": 0,
        "slot": "6",
        "type": "t_string_storage"
      },
      {
        "astId": 2415,
        "contract": "contracts/CivicFlow.sol:CivicFLow",
        "label": "_versionFallback",
        "offset": 0,
        "slot": "7",
        "type": "t_string_storage"
      },
      {
        "astId": 1145,
        "contract": "contracts/CivicFlow.sol:CivicFLow",
        "label": "_nonces",
        "offset": 0,
        "slot": "8",
        "type": "t_mapping(t_address,t_struct(Counter)1391_storage)"
      },
      {
        "astId": 1153,
        "contract": "contracts/CivicFlow.sol:CivicFLow",
        "label": "_PERMIT_TYPEHASH_DEPRECATED_SLOT",
        "offset": 0,
        "slot": "9",
        "type": "t_bytes32"
      },
      {
        "astId": 3617,
        "contract": "contracts/CivicFlow.sol:CivicFLow",
        "label": "userCount",
        "offset": 0,
        "slot": "10",
        "type": "t_uint256"
      },
      {
        "astId": 3620,
        "contract": "contracts/CivicFlow.sol:CivicFLow",
        "label": "userAddresses",
        "offset": 0,
        "slot": "11",
        "type": "t_array(t_address)dyn_storage"
      },
      {
        "astId": 3660,
        "contract": "contracts/CivicFlow.sol:CivicFLow",
        "label": "users",
        "offset": 0,
        "slot": "12",
        "type": "t_mapping(t_address,t_struct(User)3641_storage)"
      },
      {
        "astId": 3665,
        "contract": "contracts/CivicFlow.sol:CivicFLow",
        "label": "merchants",
        "offset": 0,
        "slot": "13",
        "type": "t_mapping(t_address,t_struct(Merchant)3650_storage)"
      },
      {
        "astId": 3670,
        "contract": "contracts/CivicFlow.sol:CivicFLow",
        "label": "departments",
        "offset": 0,
        "slot": "14",
        "type": "t_mapping(t_address,t_struct(Department)3655_storage)"
      },
      {
        "astId": 3674,
        "contract": "contracts/CivicFlow.sol:CivicFLow",
        "label": "isUserAuthenticated",
        "offset": 0,
        "slot": "15",
        "type": "t_mapping(t_address,t_bool)"
      },
      {
        "astId": 3680,
        "contract": "contracts/CivicFlow.sol:CivicFLow",
        "label": "userSchemes",
        "offset": 0,
        "slot": "16",
        "type": "t_mapping(t_address,t_array(t_struct(Scheme)3629_storage)dyn_storage)"
      }
    ],
    "types": {
      "t_address": {
        "encoding": "inplace",
        "label": "address",
        "numberOfBytes": "20"
      },
      "t_array(t_address)dyn_storage": {
        "base": "t_address",
        "encoding": "dynamic_array",
        "label": "address[]",
        "numberOfBytes": "32"
      },
      "t_array(t_string_storage)dyn_storage": {
        "base": "t_string_storage",
        "encoding": "dynamic_array",
        "label": "string[]",
        "numberOfBytes": "32"
      },
      "t_array(t_struct(Scheme)3629_storage)dyn_storage": {
        "base": "t_struct(Scheme)3629_storage",
        "encoding": "dynamic_array",
        "label": "struct CivicFLow.Scheme[]",
        "numberOfBytes": "32"
      },
      "t_bool": {
        "encoding": "inplace",
        "label": "bool",
        "numberOfBytes": "1"
      },
      "t_bytes32": {
        "encoding": "inplace",
        "label": "bytes32",
        "numberOfBytes": "32"
      },
      "t_mapping(t_address,t_array(t_struct(Scheme)3629_storage)dyn_storage)": {
        "encoding": "mapping",
        "key": "t_address",
        "label": "mapping(address => struct CivicFLow.Scheme[])",
        "numberOfBytes": "32",
        "value": "t_array(t_struct(Scheme)3629_storage)dyn_storage"
      },
      "t_mapping(t_address,t_bool)": {
        "encoding": "mapping",
        "key": "t_address",
        "label": "mapping(address => bool)",
        "numberOfBytes": "32",
        "value": "t_bool"
      },
      "t_mapping(t_address,t_mapping(t_address,t_uint256))": {
        "encoding": "mapping",
        "key": "t_address",
        "label": "mapping(address => mapping(address => uint256))",
        "numberOfBytes": "32",
        "value": "t_mapping(t_address,t_uint256)"
      },
      "t_mapping(t_address,t_struct(Counter)1391_storage)": {
        "encoding": "mapping",
        "key": "t_address",
        "label": "mapping(address => struct Counters.Counter)",
        "numberOfBytes": "32",
        "value": "t_struct(Counter)1391_storage"
      },
      "t_mapping(t_address,t_struct(Department)3655_storage)": {
        "encoding": "mapping",
        "key": "t_address",
        "label": "mapping(address => struct CivicFLow.Department)",
        "numberOfBytes": "32",
        "value": "t_struct(Department)3655_storage"
      },
      "t_mapping(t_address,t_struct(Merchant)3650_storage)": {
        "encoding": "mapping",
        "key": "t_address",
        "label": "mapping(address => struct CivicFLow.Merchant)",
        "numberOfBytes": "32",
        "value": "t_struct(Merchant)3650_storage"
      },
      "t_mapping(t_address,t_struct(User)3641_storage)": {
        "encoding": "mapping",
        "key": "t_address",
        "label": "mapping(address => struct CivicFLow.User)",
        "numberOfBytes": "32",
        "value": "t_struct(User)3641_storage"
      },
      "t_mapping(t_address,t_uint256)": {
        "encoding": "mapping",
        "key": "t_address",
        "label": "mapping(address => uint256)",
        "numberOfBytes": "32",
        "value": "t_uint256"
      },
      "t_mapping(t_bytes32,t_struct(RoleData)19_storage)": {
        "encoding": "mapping",
        "key": "t_bytes32",
        "label": "mapping(bytes32 => struct AccessControl.RoleData)",
        "numberOfBytes": "32",
        "value": "t_struct(RoleData)19_storage"
      },
      "t_string_storage": {
        "encoding": "bytes",
        "label": "string",
        "numberOfBytes": "32"
      },
      "t_struct(Counter)1391_storage": {
        "encoding": "inplace",
        "label": "struct Counters.Counter",
        "members": [
          {
            "astId": 1390,
            "contract": "contracts/CivicFlow.sol:CivicFLow",
            "label": "_value",
            "offset": 0,
            "slot": "0",
            "type": "t_uint256"
          }
        ],
        "numberOfBytes": "32"
      },
      "t_struct(Department)3655_storage": {
        "encoding": "inplace",
        "label": "struct CivicFLow.Department",
        "members": [
          {
            "astId": 3652,
            "contract": "contracts/CivicFlow.sol:CivicFLow",
            "label": "name",
            "offset": 0,
            "slot": "0",
            "type": "t_string_storage"
          },
          {
            "astId": 3654,
            "contract": "contracts/CivicFlow.sol:CivicFLow",
            "label": "walletAddress",
            "offset": 0,
            "slot": "1",
            "type": "t_address"
          }
        ],
        "numberOfBytes": "64"
      },
      "t_struct(Merchant)3650_storage": {
        "encoding": "inplace",
        "label": "struct CivicFLow.Merchant",
        "members": [
          {
            "astId": 3643,
            "contract": "contracts/CivicFlow.sol:CivicFLow",
            "label": "name",
            "offset": 0,
            "slot": "0",
            "type": "t_string_storage"
          },
          {
            "astId": 3645,
            "contract": "contracts/CivicFlow.sol:CivicFLow",
            "label": "walletAddress",
            "offset": 0,
            "slot": "1",
            "type": "t_address"
          },
          {
            "astId": 3647,
            "contract": "contracts/CivicFlow.sol:CivicFLow",
            "label": "verifier",
            "offset": 0,
            "slot": "2",
            "type": "t_string_storage"
          },
          {
            "astId": 3649,
            "contract": "contracts/CivicFlow.sol:CivicFLow",
            "label": "merchantIdentifier",
            "offset": 0,
            "slot": "3",
            "type": "t_string_storage"
          }
        ],
        "numberOfBytes": "128"
      },
      "t_struct(RoleData)19_storage": {
        "encoding": "inplace",
        "label": "struct AccessControl.RoleData",
        "members": [
          {
            "astId": 16,
            "contract": "contracts/CivicFlow.sol:CivicFLow",
            "label": "members",
            "offset": 0,
            "slot": "0",
            "type": "t_mapping(t_address,t_bool)"
          },
          {
            "astId": 18,
            "contract": "contracts/CivicFlow.sol:CivicFLow",
            "label": "adminRole",
            "offset": 0,
            "slot": "1",
            "type": "t_bytes32"
          }
        ],
        "numberOfBytes": "64"
      },
      "t_struct(Scheme)3629_storage": {
        "encoding": "inplace",
        "label": "struct CivicFLow.Scheme",
        "members": [
          {
            "astId": 3622,
            "contract": "contracts/CivicFlow.sol:CivicFLow",
            "label": "name",
            "offset": 0,
            "slot": "0",
            "type": "t_string_storage"
          },
          {
            "astId": 3624,
            "contract": "contracts/CivicFlow.sol:CivicFLow",
            "label": "amount",
            "offset": 0,
            "slot": "1",
            "type": "t_uint256"
          },
          {
            "astId": 3626,
            "contract": "contracts/CivicFlow.sol:CivicFLow",
            "label": "validity_time",
            "offset": 0,
            "slot": "2",
            "type": "t_uint256"
          },
          {
            "astId": 3628,
            "contract": "contracts/CivicFlow.sol:CivicFLow",
            "label": "identifier",
            "offset": 0,
            "slot": "3",
            "type": "t_string_storage"
          }
        ],
        "numberOfBytes": "128"
      },
      "t_struct(User)3641_storage": {
        "encoding": "inplace",
        "label": "struct CivicFLow.User",
        "members": [
          {
            "astId": 3631,
            "contract": "contracts/CivicFlow.sol:CivicFLow",
            "label": "name",
            "offset": 0,
            "slot": "0",
            "type": "t_string_storage"
          },
          {
            "astId": 3633,
            "contract": "contracts/CivicFlow.sol:CivicFLow",
            "label": "walletAddress",
            "offset": 0,
            "slot": "1",
            "type": "t_address"
          },
          {
            "astId": 3635,
            "contract": "contracts/CivicFlow.sol:CivicFLow",
            "label": "aadharQRCode",
            "offset": 0,
            "slot": "2",
            "type": "t_string_storage"
          },
          {
            "astId": 3637,
            "contract": "contracts/CivicFlow.sol:CivicFLow",
            "label": "isAuthenticated",
            "offset": 0,
            "slot": "3",
            "type": "t_bool"
          },
          {
            "astId": 3640,
            "contract": "contracts/CivicFlow.sol:CivicFLow",
            "label": "identifiers",
            "offset": 0,
            "slot": "4",
            "type": "t_array(t_string_storage)dyn_storage"
          }
        ],
        "numberOfBytes": "160"
      },
      "t_uint256": {
        "encoding": "inplace",
        "label": "uint256",
        "numberOfBytes": "32"
      }
    }
  }
}